{
  "_format": "hh-sol-artifact-1",
  "contractName": "Adapter",
  "sourceName": "contracts/Adapter.sol",
  "abi": [
    {
      "inputs": [
        {
          "internalType": "address",
          "name": "_factory",
          "type": "address"
        },
        {
          "internalType": "address",
          "name": "_router",
          "type": "address"
        }
      ],
      "stateMutability": "nonpayable",
      "type": "constructor"
    },
    {
      "inputs": [
        {
          "internalType": "address",
          "name": "tokenA",
          "type": "address"
        },
        {
          "internalType": "address",
          "name": "tokenB",
          "type": "address"
        },
        {
          "internalType": "uint256",
          "name": "amountADesired",
          "type": "uint256"
        },
        {
          "internalType": "uint256",
          "name": "amountBDesired",
          "type": "uint256"
        },
        {
          "internalType": "uint256",
          "name": "amountAMin",
          "type": "uint256"
        },
        {
          "internalType": "uint256",
          "name": "amountBmin",
          "type": "uint256"
        },
        {
          "internalType": "address",
          "name": "to",
          "type": "address"
        },
        {
          "internalType": "uint256",
          "name": "deadline",
          "type": "uint256"
        }
      ],
      "name": "addLiquidity",
      "outputs": [
        {
          "internalType": "uint256",
          "name": "amountA",
          "type": "uint256"
        },
        {
          "internalType": "uint256",
          "name": "amountB",
          "type": "uint256"
        },
        {
          "internalType": "uint256",
          "name": "liquidity",
          "type": "uint256"
        }
      ],
      "stateMutability": "nonpayable",
      "type": "function"
    },
    {
      "inputs": [],
      "name": "allPairsLength",
      "outputs": [
        {
          "internalType": "uint256",
          "name": "",
          "type": "uint256"
        }
      ],
      "stateMutability": "view",
      "type": "function"
    },
    {
      "inputs": [
        {
          "internalType": "address",
          "name": "tokenA",
          "type": "address"
        },
        {
          "internalType": "address",
          "name": "tokenB",
          "type": "address"
        }
      ],
      "name": "createPair",
      "outputs": [
        {
          "internalType": "address",
          "name": "pair",
          "type": "address"
        }
      ],
      "stateMutability": "nonpayable",
      "type": "function"
    },
    {
      "inputs": [],
      "name": "factory",
      "outputs": [
        {
          "internalType": "contract IUniswapV2Factory",
          "name": "",
          "type": "address"
        }
      ],
      "stateMutability": "view",
      "type": "function"
    },
    {
      "inputs": [
        {
          "internalType": "uint256",
          "name": "amountOut",
          "type": "uint256"
        },
        {
          "internalType": "address[]",
          "name": "path",
          "type": "address[]"
        }
      ],
      "name": "getAmountsIn",
      "outputs": [
        {
          "internalType": "uint256[]",
          "name": "amounts",
          "type": "uint256[]"
        }
      ],
      "stateMutability": "view",
      "type": "function"
    },
    {
      "inputs": [
        {
          "internalType": "uint256",
          "name": "amountIn",
          "type": "uint256"
        },
        {
          "internalType": "address[]",
          "name": "path",
          "type": "address[]"
        }
      ],
      "name": "getAmountsOut",
      "outputs": [
        {
          "internalType": "uint256[]",
          "name": "amounts",
          "type": "uint256[]"
        }
      ],
      "stateMutability": "view",
      "type": "function"
    },
    {
      "inputs": [
        {
          "internalType": "address",
          "name": "tokenA",
          "type": "address"
        },
        {
          "internalType": "address",
          "name": "tokenB",
          "type": "address"
        }
      ],
      "name": "getPair",
      "outputs": [
        {
          "internalType": "address",
          "name": "pair",
          "type": "address"
        }
      ],
      "stateMutability": "view",
      "type": "function"
    },
    {
      "inputs": [
        {
          "internalType": "address",
          "name": "tokenA",
          "type": "address"
        },
        {
          "internalType": "address",
          "name": "tokenB",
          "type": "address"
        },
        {
          "internalType": "uint256",
          "name": "liquidity",
          "type": "uint256"
        },
        {
          "internalType": "uint256",
          "name": "amountAMin",
          "type": "uint256"
        },
        {
          "internalType": "uint256",
          "name": "amountBMin",
          "type": "uint256"
        },
        {
          "internalType": "address",
          "name": "to",
          "type": "address"
        },
        {
          "internalType": "uint256",
          "name": "deadline",
          "type": "uint256"
        }
      ],
      "name": "removeLiquidity",
      "outputs": [
        {
          "internalType": "uint256",
          "name": "amountA",
          "type": "uint256"
        },
        {
          "internalType": "uint256",
          "name": "amountB",
          "type": "uint256"
        }
      ],
      "stateMutability": "nonpayable",
      "type": "function"
    },
    {
      "inputs": [],
      "name": "router",
      "outputs": [
        {
          "internalType": "contract IUniswapV2Router02",
          "name": "",
          "type": "address"
        }
      ],
      "stateMutability": "view",
      "type": "function"
    },
    {
      "inputs": [
        {
          "internalType": "uint256",
          "name": "amountIn",
          "type": "uint256"
        },
        {
          "internalType": "uint256",
          "name": "amountOutMin",
          "type": "uint256"
        },
        {
          "internalType": "address[]",
          "name": "path",
          "type": "address[]"
        },
        {
          "internalType": "address",
          "name": "to",
          "type": "address"
        },
        {
          "internalType": "uint256",
          "name": "deadline",
          "type": "uint256"
        }
      ],
      "name": "swapExactTokensForTokens",
      "outputs": [
        {
          "internalType": "uint256[]",
          "name": "amounts",
          "type": "uint256[]"
        }
      ],
      "stateMutability": "nonpayable",
      "type": "function"
    },
    {
      "inputs": [
        {
          "internalType": "uint256",
          "name": "amountOut",
          "type": "uint256"
        },
        {
          "internalType": "uint256",
          "name": "amountInMax",
          "type": "uint256"
        },
        {
          "internalType": "address[]",
          "name": "path",
          "type": "address[]"
        },
        {
          "internalType": "address",
          "name": "to",
          "type": "address"
        },
        {
          "internalType": "uint256",
          "name": "deadline",
          "type": "uint256"
        }
      ],
      "name": "swapTokensForExactTokens",
      "outputs": [
        {
          "internalType": "uint256[]",
          "name": "amounts",
          "type": "uint256[]"
        }
      ],
      "stateMutability": "nonpayable",
      "type": "function"
    }
  ],
  "bytecode": "0x608060405234801561001057600080fd5b506040516110f23803806110f283398101604081905261002f9161007c565b600080546001600160a01b039384166001600160a01b031991821617909155600180549290931691161790556100af565b80516001600160a01b038116811461007757600080fd5b919050565b6000806040838503121561008f57600080fd5b61009883610060565b91506100a660208401610060565b90509250929050565b611034806100be6000396000f3fe608060405234801561001057600080fd5b50600436106100c95760003560e01c8063c45a015511610081578063e6a439051161005b578063e6a43905146101ac578063e8e33700146101bf578063f887ea40146101ed57600080fd5b8063c45a01551461015b578063c9c6539614610186578063d06ca61f1461019957600080fd5b8063574f2ba3116100b2578063574f2ba31461010a5780638803dbee14610120578063baa2abde1461013357600080fd5b80631f00ca74146100ce57806338ed1739146100f7575b600080fd5b6100e16100dc366004610b1d565b610200565b6040516100ee9190610b69565b60405180910390f35b6100e1610105366004610bc5565b610291565b61011261032d565b6040519081526020016100ee565b6100e161012e366004610bc5565b6103b9565b610146610141366004610c38565b6103f4565b604080519283526020830191909152016100ee565b60005461016e906001600160a01b031681565b6040516001600160a01b0390911681526020016100ee565b61016e610194366004610caa565b6104b2565b6100e16101a7366004610b1d565b610541565b61016e6101ba366004610caa565b610576565b6101d26101cd366004610ce3565b6105d8565b604080519384526020840192909252908201526060016100ee565b60015461016e906001600160a01b031681565b6001546040516307c0329d60e21b81526060916001600160a01b031690631f00ca749061023590879087908790600401610da8565b60006040518083038186803b15801561024d57600080fd5b505afa158015610261573d6000803e3d6000fd5b505050506040513d6000823e601f3d908101601f191682016040526102899190810190610de1565b949350505050565b6001546040516338ed173960e01b81526060916001600160a01b0316906338ed1739906102cc908a908a908a908a908a908a90600401610e9f565b600060405180830381600087803b1580156102e657600080fd5b505af11580156102fa573d6000803e3d6000fd5b505050506040513d6000823e601f3d908101601f191682016040526103229190810190610de1565b979650505050505050565b60008060009054906101000a90046001600160a01b03166001600160a01b031663574f2ba36040518163ffffffff1660e01b815260040160206040518083038186803b15801561037c57600080fd5b505afa158015610390573d6000803e3d6000fd5b505050506040513d601f19601f820116820180604052508101906103b49190610edd565b905090565b600154604051634401edf760e11b81526060916001600160a01b031690638803dbee906102cc908a908a908a908a908a908a90600401610e9f565b600154604051635d5155ef60e11b81526001600160a01b038981166004830152888116602483015260448201889052606482018790526084820186905284811660a483015260c48201849052600092839291169063baa2abde9060e4016040805180830381600087803b15801561046a57600080fd5b505af115801561047e573d6000803e3d6000fd5b505050506040513d601f19601f820116820180604052508101906104a29190610ef6565b909a909950975050505050505050565b600080546040516364e329cb60e11b81526001600160a01b03858116600483015284811660248301529091169063c9c6539690604401602060405180830381600087803b15801561050257600080fd5b505af1158015610516573d6000803e3d6000fd5b505050506040513d601f19601f8201168201806040525081019061053a9190610f1a565b9392505050565b60015460405163d06ca61f60e01b81526060916001600160a01b03169063d06ca61f9061023590879087908790600401610da8565b6000805460405163e6a4390560e01b81526001600160a01b03858116600483015284811660248301529091169063e6a439059060440160206040518083038186803b1580156105c457600080fd5b505afa158015610516573d6000803e3d6000fd5b600080806105f16001600160a01b038c1633308c610819565b6106066001600160a01b038b1633308b610819565b60015460405163095ea7b360e01b81526001600160a01b039182166004820152602481018b9052908c169063095ea7b390604401602060405180830381600087803b15801561065457600080fd5b505af1158015610668573d6000803e3d6000fd5b505050506040513d601f19601f8201168201806040525081019061068c9190610f37565b5060015460405163095ea7b360e01b81526001600160a01b039182166004820152602481018a9052908b169063095ea7b390604401602060405180830381600087803b1580156106db57600080fd5b505af11580156106ef573d6000803e3d6000fd5b505050506040513d601f19601f820116820180604052508101906107139190610f37565b5060015460405162e8e33760e81b81526001600160a01b038d811660048301528c81166024830152604482018c9052606482018b9052608482018a905260a4820189905287811660c483015260e482018790529091169063e8e337009061010401606060405180830381600087803b15801561078e57600080fd5b505af11580156107a2573d6000803e3d6000fd5b505050506040513d601f19601f820116820180604052508101906107c69190610f59565b919450925090506107ec336107db858c610f87565b6001600160a01b038e1691906108b7565b61080b336107fa848b610f87565b6001600160a01b038d1691906108b7565b985098509895505050505050565b6040516001600160a01b03808516602483015283166044820152606481018290526108b19085906323b872dd60e01b906084015b60408051601f198184030181529190526020810180517bffffffffffffffffffffffffffffffffffffffffffffffffffffffff167fffffffff00000000000000000000000000000000000000000000000000000000909316929092179091526108ec565b50505050565b6040516001600160a01b0383166024820152604481018290526108e790849063a9059cbb60e01b9060640161084d565b505050565b6000610941826040518060400160405280602081526020017f5361666545524332303a206c6f772d6c6576656c2063616c6c206661696c6564815250856001600160a01b03166109d69092919063ffffffff16565b8051909150156108e7578080602001905181019061095f9190610f37565b6108e75760405162461bcd60e51b815260206004820152602a60248201527f5361666545524332303a204552433230206f7065726174696f6e20646964206e60448201527f6f7420737563636565640000000000000000000000000000000000000000000060648201526084015b60405180910390fd5b6060610289848460008585843b610a2f5760405162461bcd60e51b815260206004820152601d60248201527f416464726573733a2063616c6c20746f206e6f6e2d636f6e747261637400000060448201526064016109cd565b600080866001600160a01b03168587604051610a4b9190610fd8565b60006040518083038185875af1925050503d8060008114610a88576040519150601f19603f3d011682016040523d82523d6000602084013e610a8d565b606091505b509150915061032282828660608315610aa757508161053a565b825115610ab75782518084602001fd5b8160405162461bcd60e51b81526004016109cd9190610ff4565b60008083601f840112610ae357600080fd5b50813567ffffffffffffffff811115610afb57600080fd5b6020830191508360208260051b8501011115610b1657600080fd5b9250929050565b600080600060408486031215610b3257600080fd5b83359250602084013567ffffffffffffffff811115610b5057600080fd5b610b5c86828701610ad1565b9497909650939450505050565b6020808252825182820181905260009190848201906040850190845b81811015610ba157835183529284019291840191600101610b85565b50909695505050505050565b6001600160a01b0381168114610bc257600080fd5b50565b60008060008060008060a08789031215610bde57600080fd5b8635955060208701359450604087013567ffffffffffffffff811115610c0357600080fd5b610c0f89828a01610ad1565b9095509350506060870135610c2381610bad565b80925050608087013590509295509295509295565b600080600080600080600060e0888a031215610c5357600080fd5b8735610c5e81610bad565b96506020880135610c6e81610bad565b955060408801359450606088013593506080880135925060a0880135610c9381610bad565b8092505060c0880135905092959891949750929550565b60008060408385031215610cbd57600080fd5b8235610cc881610bad565b91506020830135610cd881610bad565b809150509250929050565b600080600080600080600080610100898b031215610d0057600080fd5b8835610d0b81610bad565b97506020890135610d1b81610bad565b965060408901359550606089013594506080890135935060a0890135925060c0890135610d4781610bad565b8092505060e089013590509295985092959890939650565b8183526000602080850194508260005b85811015610d9d578135610d8281610bad565b6001600160a01b031687529582019590820190600101610d6f565b509495945050505050565b838152604060208201526000610dc2604083018486610d5f565b95945050505050565b634e487b7160e01b600052604160045260246000fd5b60006020808385031215610df457600080fd5b825167ffffffffffffffff80821115610e0c57600080fd5b818501915085601f830112610e2057600080fd5b815181811115610e3257610e32610dcb565b8060051b604051601f19603f83011681018181108582111715610e5757610e57610dcb565b604052918252848201925083810185019188831115610e7557600080fd5b938501935b82851015610e9357845184529385019392850192610e7a565b98975050505050505050565b86815285602082015260a060408201526000610ebf60a083018688610d5f565b6001600160a01b039490941660608301525060800152949350505050565b600060208284031215610eef57600080fd5b5051919050565b60008060408385031215610f0957600080fd5b505080516020909101519092909150565b600060208284031215610f2c57600080fd5b815161053a81610bad565b600060208284031215610f4957600080fd5b8151801515811461053a57600080fd5b600080600060608486031215610f6e57600080fd5b8351925060208401519150604084015190509250925092565b600082821015610fa757634e487b7160e01b600052601160045260246000fd5b500390565b60005b83811015610fc7578181015183820152602001610faf565b838111156108b15750506000910152565b60008251610fea818460208701610fac565b9190910192915050565b6020815260008251806020840152611013816040850160208701610fac565b601f01601f1916919091016040019291505056fea164736f6c6343000809000a",
  "linkReferences": {},
  "deployedLinkReferences": {}
}